:020000040800F2
:100000003809002045010008431800089916000827
:10001000411800088D010008B51D0008000000000F
:100020000000000000000000000000006718000849
:10003000D3010008000000006518000869180008D6
:100040005F0100085F0100085F0100085F01000810
:100050005F0100085F0100085F0100085F01000800
:100060005F0100085F0100085F0100085F010008F0
:100070005F0100085F010008910100089D01000870
:100080005F0100085F0100085F0100085F010008D0
:100090005F0100085F0100085F0100085F010008C0
:1000A0005F0100085F0100085F0100085F010008B0
:1000B000291900085F0100085F0100085F010008BE
:1000C0005F0100085F0100085F0100085F01000890
:1000D0005F0100089D1D00085F0100085F01000826
:1000E0005F0100085F0100085F0100085F01000870
:1000F0005F0100085F0100085F0100085F01000860
:100100005F0100085F0100085F0100085F0100084F
:100110005F0100085F0100085F0100085F0100083F
:100120005F0100085F0100085F0100085F0100082F
:10013000DFF80CD000F018F800480047291E00082E
:10014000380900200648804706480047FEE7FEE7DA
:10015000FEE7FEE7FEE7FEE7FEE7FEE7FEE7FEE777
:10016000E118000831010008064C074D06E0E06880
:1001700040F0010394E8070098471034AC42F6D3EE
:10018000FFF7DAFFEC1E00080C1F0008FEE7000076
:10019000014800F0CFB80000F4040020014800F04E
:1001A000C9B80000B004002030B590F840500124D8
:1001B000AC40C56B6C60046863604368102B0368D7
:1001C00003D099600068C26030BD9A600068C16069
:1001D00030BD704701680A6822F00E020A600168AB
:1001E0000A6822F001020A6090F84020C36B0121E6
:1001F00001FA02F25A6080F82110002180F82010E4
:10020000084670472DE9F05F90F82110002402297C
:1002100003D004218163012485E001680A6822F08B
:100220000E020A6001680A6822F001020A603F4E6D
:100230003E4FB215DFF8F4C0DFF8F090DFF8ECA025
:10024000DFF8E8B0DFF8E4E00168783F1301150259
:10025000ACF1640CA9F15009AAF13C0AABF1280BEE
:10026000AEF1140E4FF48018B14227D9B9420ED026
:10027000614512D049451DD0514518D0594518D077
:10028000714501D1424615E0294EB14201D101220A
:1002900010E0274E1436B14201D110220AE0244E5C
:1002A0002836B14206D0224A3C32914201D11A4648
:1002B00000E02A461E49091F0A602BE0B94213D00C
:1002C000614517D0494522D051451DD059451DD013
:1002D000714501D142461AE0B14202D14FF080721D
:1002E00015E0134EB14201D1012210E0104E143638
:1002F000B14201D110220AE00D4E2836B14206D09B
:100300000B4A3C32914201D11A4600E02A46074985
:1003100080394A60012180F82110002180F82010E6
:10032000416B01B188472046BDE8F09F8000024044
:10033000080402402DE9F05FC16B0A6801680B6890
:10034000046C4FF0040808FA04F8844D844E854F7D
:10035000DFF814C2DFF81492DFF814A2DFF814B249
:10036000DFF814E218EA020F65D05FEA437862D53D
:100370000A68920603D40A6822F004020A60DFF8D1
:10038000F0814FF48062016808F11408130114022F
:10039000414524D9A9420DD0B1420FD0B9421AD05B
:1003A000614515D0494515D0514501D1120312E0E0
:1003B000594501D104220EE0714501D140220AE0E5
:1003C0006D4D1435A94206D06B4A2832914201D1B5
:1003D0001A4600E022466749091F0A6029E0A9423F
:1003E00013D0B14215D0B94220D061451BD0494548
:1003F0001BD0514502D14FF4800217E0414502D194
:100400004FF0806212E0594501D104220EE071459F
:1004100001D140220AE0584D1435A94206D0564A6F
:100420002832914201D11A4600E022464B49083950
:100430004A60C16A71E04FF0020808FA04F818EA4D
:10044000020F70D05FEA83786DD50A68920606D4F1
:100450000A6822F00A020A60012180F82110DFF800
:1004600010814FF40072016808F11408130114029E
:10047000414524D9A9420DD0B1420FD0B9421AD07A
:10048000614515D0494515D0514501D1120312E0FF
:10049000594501D102220EE0714501D120220AE026
:1004A000354D1435A94206D0334A2832914201D144
:1004B0001A4600E022462F49091F0A6029E0A94296
:1004C00013D0B14215D0B94220D061451BD0494567
:1004D0001BD0514502D14FF4001217E0414502D123
:1004E0004FF0007212E0594501D102220EE0714531
:1004F00001D120220AE0204D1435A94206D01E4A1F
:100500002832914201D11A4600E0224613490839A7
:100510004A60002180F82010816A00291CD0BDE8C3
:10052000F05F0847FFE70825A540154214D01A07D9
:1005300012D50A6822F00E020A6090F84020C36BC0
:10054000012101FA02F25A60816380F82110002132
:1005500080F82010016BE0E7BDE8F09F0800024042
:100560001C0002403000024044000240580002409B
:100570006C000240080402401C04024030B560B127
:100580001C4A03681421934209D21B4A1A44B2FB45
:10059000F1F18900016419490AE0012030BD154AD2
:1005A00052421A44B2FBF1F1890001641149083941
:1005B000C163022180F821101A6843F6F0718A4362
:1005C000F0E901142143D0E902452C432143046999
:1005D0002143446921438469214311431960002167
:1005E00041628162C1620163416301224277017706
:1005F000084630BD08040240F8FFFDBF000002407D
:1006000070B5044690F82000002501280CD0012088
:1006100084F8200094F821600020012E06D084F890
:1006200020000225284670BD022070BD022684F8F5
:100630002160A0632068066826F001060660204657
:10064000FFF7B2FDE06A00282068016802D041F09F
:100650000E0106E021F0040101602068016841F00C
:100660000A0101602068016841F001010160D9E7D9
:1006700070B5044600F00CF90546601C02D0044831
:100680000078044400F004F9401BA042FAD370BD86
:100690001C0000202DE9F84FDFF8B8A100220AF174
:1006A000040B144601274FF00F090BF1040E00BF95
:1006B0000B6807FA04F52B40AB4274D1DFF898C100
:1006C0004E68A6EB0C0866452BD00DDC032E34D00B
:1006D00005DC36B3012E19D0022E2FD11BE0112ECE
:1006E00016D0122E2AD119E0B8F5881F19D006DCD1
:1006F000B8F5803F15D0B8F5801F1FD111E0B8F5CF
:10070000001F0ED0B8F5041F18D10AE0CA6815E022
:10071000CA68121D12E0CA6808320FE0CA680C32BB
:100720000CE08A682AB1012A4FF0080203D0456123
:1007300004E0042202E0056100E00022FF2B01D862
:10074000064601E000F104064FEA840501D9A5F14F
:100750002005D6F800C009FA05F82CEA080C02FAC0
:1007600005F54CEA050CC6F800C04D68ED006AD5E9
:100770003A4DAE6946F00106AE61AD6924F003065C
:1007800005F001050095364D06EB050CDCF8085028
:10079000A6074FEA167809FA08F6B543314EB0427B
:1007A00002D100261AE04EE02F4EB04201D10126C0
:1007B00014E02E4EB04201D102260FE02C4EB04282
:1007C00001D103260AE02B4EB04201D1042605E0F8
:1007D000294EB04201D1052600E0062606FA08F6A9
:1007E0002E43CCF808604D68DAF80060ED035546FA
:1007F00001D51E4300E09E432E604D68AD0305D534
:10080000DBF800601E43CBF8006004E0DBF800502A
:100810009D43CBF800504D68DEF80060ED02754650
:1008200001D51E4300E09E432E604D68AD0205D504
:10083000084D0C352E681E432E6004E0054E0C3624
:1008400035689D433560641C102CFFF431AFBDE862
:10085000F88F000000040140000011100010024059
:100860000000014000080140000C01400010014060
:100870000014014000180140001C0140C2684A40B9
:10088000C26070470AB1016170470904FBE70000CC
:1008900001488068704700001C0000200248816801
:1008A00002781144816070471C000020074810B591
:1008B000016841F010010160032000F09DF8002064
:1008C00000F006F800F024F8002010BD00200240DF
:1008D00070B50D4D04464FF47A712878B1FBF0F0F5
:1008E0000A490968B1FBF0F000F02DFB48B9102C63
:1008F00007D200222146501E00F05EF800206C60F6
:1009000070BD012070BD00001C00002028000020E8
:10091000214808B5816941F001018161816901F0D7
:1009200001010091C16941F08051C161C06900F0CD
:1009300080500090032000F05FF8002211466FF015
:100940000B0000F039F8002211466FF00A0000F0A9
:1009500033F8002211466FF0090000F02DF8002254
:100960001146501F00F028F800221146101F00F019
:1009700023F800221146901E00F01EF800221146B6
:10098000501E00F019F80548416821F0E06141F07F
:100990000071416008BD00000010024000000140ED
:1009A00000F01F02012191404009800000F1E02089
:1009B000C0F8001170470000F0B40E4B1B680C46E5
:1009C000C3F30223C3F10705042D00D90425191D23
:1009D000072901D2002300E0DB1E012606FA05F1FB
:1009E000491E214099409E40761E16403143F0BC7E
:1009F00000F028BF0CED00E0064900F0070208688F
:100A00004FF6FF03184040EA0220034A10430860F3
:100A1000704700000CED00E00000FA052DE9F047FA
:100A2000DFF83C8105460E46D8F8000000F00700CC
:100A3000B0420CD2D8F8001021F007013143C8F8B9
:100A40000010D8F8000000F00700B04263D1287809
:100A5000444C800705D56068A96820F0F000084381
:100A600060602878C00745D06868012816D02168E2
:100A7000022816D0890700294DDA616821F00301A8
:100A800001436160FFF704FF6968074641F288305F
:100A900001290FD00229814619D027E02168890356
:100AA000E9E78901E7E700BFFFF7F2FEC11B49450F
:100AB00001D918E081466068C0F381000128F3D1B4
:100AC00018E000BFFFF7E4FEC11B49450BD8606882
:100AD000C0F381000228F5D10CE000BFFFF7D8FE7B
:100AE000C11B494502D90320BDE8F087606810F0BA
:100AF0000C0FF3D1D8F80010404601F00701B142C5
:100B00000BD9016821F0070131430160006800F052
:100B10000700B04201D00120E6E72878400705D55C
:100B20006068E96820F4E0600843606028780007A6
:100B300006D56068296920F4605040EAC100606011
:100B400000F03CF86168084AC1F30311515CC840E9
:100B5000064908600020FFF7BBFE0020C4E7000044
:100B60000020024000100240D41E0008280000208F
:100B7000014800687047000028000020044805492B
:100B800000684968044AC1F30221515CC8407047BB
:100B90002800002000100240E41E00080448054917
:100BA00000684968044AC1F3C221515CC8407047DB
:100BB0002800002000100240E41E000812A185B0A9
:100BC0000FC98DE80F0014A0144A00680490516802
:100BD000134801F00C03042B10D0082B0ED1C1F3E5
:100BE0008343C9031DF803000AD5516804AAC1F361
:100BF0004041515C0A4A5043B0FBF1F005B07047E8
:100C000008494843FAE700000203040506070809FB
:100C10000A0B0C0D0E0F1010010200000010024014
:100C200000127A0000093D002DE9F84F04460078D3
:100C3000B94DC00748D06868C0F38100012807D0CB
:100C40006868C0F38100022809D16868C00306D52E
:100C50002868800338D5606800286FD034E0606869
:100C6000B0F5803F0BD010B1B0F5A02F11D028689F
:100C700020F480302860286820F4802002E0286872
:100C800040F480302860606888B1FFF701FE0646B6
:100C900009E0286840F480202860F0E7FFF7F8FDBD
:100CA000801B642875D828688003F7D50CE0FFF70F
:100CB000EFFD064605E000BFFFF7EAFD801B642854
:100CC000F0D828688003F7D42078944E80074FF03E
:100CD00001094FF000083BD5686810F00C0F07D0F1
:100CE0006868C0F38100022809D16868C00306D48F
:100CF0002868800714D5206901281FD110E02069D9
:100D0000B0B1C6F80090FFF7C3FD074605E000BF8D
:100D1000FFF7BEFDC01B0228C4D828688007F7D59E
:100D20002868616920F0F80040EAC10028600FE0FF
:100D3000C6F80080FFF7ACFD074606E0E9E000BF1B
:100D4000FFF7A6FDC01B022823D828688007F7D428
:100D5000207800072CD57248A169D9B1C0F800905D
:100D6000FFF796FD074604E0FFF792FDC01B02283F
:100D70000FD8686A8007F7D56A484FF4FA510068BF
:100D8000B0FBF1F0009000BF0098411E0091FAD234
:100D90000EE080E0C0F80080FFF77AFD074604E02F
:100DA000FFF776FDC01B022875D8686A8007F7D464
:100DB0002078400760D5E8690027C00008D4E869BA
:100DC00040F08050E861E869012700F08050009011
:100DD00055480168C90513D40168834641F4807100
:100DE0000160FFF755FD824606E000BFFFF750FDAA
:100DF000A0EB0A0064284ED8DBF80000C005F5D54A
:100E0000E06801280AD008B1052813D0286A20F02C
:100E100001002862286A20F0040002E0286A40F0FD
:100E200001002862E06841F2883B98B1FFF730FD8D
:100E300082460BE0286A40F004002862EEE700BF1B
:100E4000FFF726FDA0EB0A0159455AD8286A80070A
:100E5000F6D50CE0FFF71CFD824605E0FFF718FD14
:100E6000A0EB0A0159454CD8286A8007F6D41FB177
:100E7000E86920F08050E861E06988B36968C1F3EF
:100E80008101022945D00228C6F8608004D0FFF70E
:100E9000FFFC044638E034E0FFF7FAFC074604E0C4
:100EA000FFF7F6FCC01B02282BD828688001F7D476
:100EB000206AB0F5803F05D16868A16820F4003051
:100EC00008436860D4E908010843696821F4741193
:100ED00008436860C6F86090FFF7DAFC044606E055
:100EE00015E000BFFFF7D4FC001B022809D82868D2
:100EF0008001F7D50BE000BFFFF7CAFC001B0228FA
:100F000002D90320BDE8F88F28688001F4D40020BE
:100F1000F8E70120F6E7000000100240000042421E
:100F20008004424228000020007000404FF0E02181
:100F30000428086903D020F004000861704740F0DD
:100F40000400FAE7704710B5401EB0F1807F01D36E
:100F5000012010BD4FF0E02460610F21601700F008
:100F600071FC0020A06107202061002010BD10B599
:100F7000FFF7E8FF10BD7047704730B590F83C2090
:100F8000012A20D0012280F83C20022380F83D3045
:100F900003685C6824F070045C6003685C680D683A
:100FA0002C435C6003689C6824F080049C600368A8
:100FB0009C6849680C439C6080F83D20002180F8C3
:100FC0003C10084630BD022030BD10B5040003D0EF
:100FD00094F83D0010B107E0012010BD002084F816
:100FE0003C00204600F00CF8022084F83D00211D52
:100FF000206800F09FFC012084F83D00002010BD17
:1010000008B50068B0F1804F12D10A48C16941F0BB
:101010000101C161C069002200F0010000900221BD
:101020001C20FFF7C9FCBDE808401C20FFF7B8BC36
:1010300008BD0000001002400168CA6842F00102C9
:10104000CA600068016841F001010160002070473A
:1010500070B5044690F83C00012817D0012584F8AB
:101060003C50022084F83D002068826822F077021C
:1010700022F47F4282600868502837D00DDC202897
:1010800059D005DC88B3102841D151E0022070BD51
:10109000302853D040283AD13FE060282ED0702825
:1010A0000BD0B0F5805F03D0B0F5005F2FD110E01A
:1010B0002068816821F0070115E0CB68D1E90121A2
:1010C000206800F07DFC2168886840F07700886027
:1010D0001DE0CB68D1E90121206800F071FC206897
:1010E000816841F48041816011E01EE0CA6849686E
:1010F000206800F077FC5021206806E0CA68496843
:10110000206800F080FC6021206800F063FC84F817
:101110003D50002084F83C0070BDCA6849682068D2
:1011200000F060FC40212068EFE700212068ECE738
:1011300010212068E9E720212068E6E730212068B7
:10114000E3E7704770B50446006801694FF0000599
:10115000C943890715D4C168C943890711D4E91E59
:10116000016101202077206880698007204602D035
:10117000FFF7E7FF04E000F098F8204600F096F84B
:10118000257720680169C943490717D4C168C94355
:10119000490713D46FF00401016102202077206811
:1011A000806910F4407F204602D0FFF7CAFF04E0B8
:1011B00000F07BF8204600F079F825772068016977
:1011C000C943090716D4C168C943090712D46FF08F
:1011D00008010161042020772068C069800720464B
:1011E00002D0FFF7AEFF04E000F05FF8204600F009
:1011F0005DF8257720680169C943C90617D4C1681D
:10120000C943C90613D46FF010010161082020778B
:101210002068C06910F4407F204602D0FFF791FF9C
:1012200004E000F042F8204600F040F825772068FE
:101230000169C943C90708D1C168C943C90704D1B5
:10124000891E0161204600F033F820680169C94316
:10125000090609D4C168C943090605D46FF08001A5
:1012600001612046FFF787FE20680169C9434906EE
:1012700009D4C168C943490605D46FF04001016132
:10128000204600F023F820680169C94389060BD481
:10129000C168C943890607D46FF020010161204667
:1012A000BDE87040FFF768BE70BD70477047000032
:1012B000044900680968884203D120210248FFF7E9
:1012C000DDBA70472C00002000180140704710B5AF
:1012D00004460068416994F83920C1F3C011212AFD
:1012E0000BD151B1416921F080014161206B08B1FE
:1012F000FEF770FF204600F012FC2068416994F868
:101300003A20C1F38011222A0BD151B1416921F059
:1013100040014161606B08B1FEF75CFF204600F0C0
:10132000F0FB002010BD704770B5026804461068DD
:10133000D168536910F00F0F50D003F0010501F48C
:10134000907635435DD0C20705D0CA0503D5E26B60
:1013500042F00102E263420705D5DA0703D0E26BEF
:1013600042F00202E263820705D5DA0703D0E26B9E
:1013700042F00402E263020705D5DA0703D0E26B0C
:1013800042F00802E263E26B002A33D0800604D503
:10139000880602D5204600F0CBFB20684069E16B4F
:1013A000C0F38010090700D428B3204600F0A9FB41
:1013B0002068416949061AD5416921F0400141611F
:1013C000606BA0B11B494163606BFEF71BFF0028F7
:1013D00010D0606B416BBDE870400847830610D5A4
:1013E0008B060ED52046BDE8704000F0A1BB20461C
:1013F000FFF799FF70BD2046FFF795FF0020E063DF
:1014000070BD030606D50B0604D52046BDE8704026
:1014100000F092BC4006F3D54806F1D5D1682046CD
:1014200021F04001D160202184F8391000F032F918
:1014300070BD00002B1A000870B5040004D094F8A9
:101440003900002510B106E0012070BD84F8385045
:10145000204600F023F8242084F839002068C16871
:1014600021F40051C160204600F0AEFB2068016904
:1014700021F4904101612068416921F02A01416114
:101480002068C16841F40051C160E563202084F800
:10149000390084F83A00002070BD0000F0B506461F
:1014A00000682C4985B0884252D12B48816941F4AB
:1014B000804181618069294D00F4804004904FF49F
:1014C0000070009002200190032003906946284696
:1014D000FFF7E0F800242815CDE900046946284606
:1014E0000294FFF7D7F81F4D1D488027C5E9000477
:1014F000C5E9024720202C61C5E905402846EC617A
:10150000FFF73CF818B1722117A000F07DFC75635D
:101510006E62144D12484435143801C5102091C52F
:10152000104845F8104944306C61AC61EC61FFF73C
:1015300025F818B182210CA000F066FC356300226A
:10154000012125206E62FFF737FA2520FFF728FAE0
:1015500005B0F0BD00380140001002400008014015
:1015600058000240B00400202E2E2F5372632F75B6
:10157000736172742E630000F8B5044690F83A0067
:1015800020283CD1C1B3BAB394F83800012836D032
:10159000012084F83800A162A2850025E56322209D
:1015A00084F83A00636B17489862636B1648D862F8
:1015B000636B16481863606B134645630846666B99
:1015C000216802463046091DFFF71AF820680168B5
:1015D0004168009184F83850C16841F48071C1605D
:1015E0002068416941F0010141612068416941F091
:1015F000400141610020F8BDFFE70120FBE7022028
:10160000F9E70000851A0008C11A00083B1A000813
:101610007047704770B5044690F83900202830D1E3
:1016200069B362B394F8380001282AD0012084F805
:1016300038002162A284E2840025E563212084F839
:101640003900236B10489862236B1048D862236BD3
:101650000F481863206B134645632668206B321DC4
:10166000FEF7CEFF21686FF04000086084F8385024
:101670002068416941F080014161002070BD012076
:1016800070BD022070BD0000CB1A0008F91A0008D6
:101690003B1A000870477047FEE70000094808B58C
:1016A000416941F0010141614069002200F00100FF
:1016B000009003210E20FFF77FF9BDE808400E20BF
:1016C000FFF76EB9001002402DE9F041274886B0BF
:1016D000816941F040018161816901F0400104911B
:1016E000816941F004018161816901F00401049183
:1016F000816941F00801816180691D4F00F0080097
:101700000490002220213846FFF7BCF8DFF86480FF
:10171000002220214046FFF7B5F808200090164827
:101720000124CDE9010469463846FEF7B3FF1020D5
:1017300000900020CDE9010469463846FEF7AAFF73
:10174000202602250096CDE90145694638460395D5
:10175000FEF7A0FF0096CDE9014569464046039596
:10176000FEF798FF06B0BDE8F081000000100240CF
:1017700000180140000C01400000211010B518486D
:1017800086B04FF08041016041F61F410024C0E95E
:10179000011442F20F71C0E9031480218161FFF747
:1017A00014FC18B13F210FA000F02EFB4FF4805025
:1017B000009069460A48FFF74BFC18B1452109A083
:1017C00000F022FB049404A905480594FFF7D5FB1B
:1017D000002803D04C2103A000F016FB06B010BD7A
:1017E0002C0000202E2E2F5372632F74696D2E63F0
:1017F000000000000D4810B50B4901604FF4E131C5
:101800004160002181600C22C160C0E90412816145
:10181000C161FFF711FE002805D0BDE81040472147
:1018200003A000F0F1BA10BD0038014070040020A0
:101830002E2E2F5372632F75736172742E63000006
:10184000FEE770470907090E002806DA00F00F00CE
:1018500000F1E02080F8141D704700F1E02080F8CE
:10186000001470477047704710B5FFF717F8BDE8D0
:101870001040FFF77CBB30B58FB001210804CDE9E3
:1018800000100024029402250491CDE907504FF482
:10189000E01009906846FFF7C7F900B1FEE70F2096
:1018A000CDE90A054FF48060CDE90C4002210AA879
:1018B0000E94FFF7B3F800B1FEE7FFF759F94FF4C4
:1018C0007A71B0FBF1F0FFF73EFB0420FFF72EFB2F
:1018D00000221146501EFFF76FF80FB030BD000018
:1018E0000D48016841F00101016041680B4A114057
:1018F000416001680A4A11400160016821F48021B9
:101900000160416821F4FE0141604FF41F018160D4
:101910000449C00308607047001002400000FFF84F
:10192000FFFFF6FE08ED00E00148FFF70BBC0000EA
:101930002C000020F0B502681C4B1D4D1D4E1E4FA3
:101940001E4C4FF0804C984209D0A04207D0604511
:1019500005D0A84203D0B04201D0B84204D122F051
:10196000700E4A6842EA0E02984209D0A04207D09F
:10197000604505D0A84203D0B04201D0B84203D19F
:1019800022F44075CA682A4322F080054A692A4336
:1019900002608A68C2620A688262984201D0A042EC
:1019A00001D10969016301214161F0BD002C0140B1
:1019B0000004004000080040000C004000340140DA
:1019C00010B5846842EA032224F47F440A43224388
:1019D000826010BD826822F070020A4342F0070163
:1019E0008160704710B5036A046A24F00104046240
:1019F000846924F0F00444EA021423F00A020A4342
:101A00008461026210BD10B5036A23F01003036203
:101A10008369046A23F4704343EA023224F0A0038A
:101A200043EA01118261016210BD10B5406A0021D4
:101A3000C185C184FFF777FC10BD70B5446A20688A
:101A4000406994F83910C0F3C0100025212904D151
:101A500018B1E584204600F062F82068406994F8E7
:101A60003A10C0F38010222904D118B1E585204630
:101A700000F047F8E06B40F01000E0632046FFF70D
:101A800052FC70BD10B50146406A096809688906B4
:101A900013D40021C1850168CA6822F48072CA602B
:101AA00001684A6922F001024A6101684A6922F02C
:101AB00040024A61202180F83A10FFF7A9FD10BDCD
:101AC00010B5406AFFF7A5FD10BD10B50146406A8C
:101AD0000968096889060CD40021C18401684A6933
:101AE00022F080024A610068C16841F04001C16093
:101AF00010BDFFF7CFFD10BD10B5406AFFF7CBFD5D
:101B000010BD0168CA6822F49072CA6001684A690F
:101B100022F001024A61202180F83A1070470168E2
:101B2000CA6822F0C002CA60202180F839107047CC
:101B300010B590F83A10222901D0022010BD81681A
:101B4000B1F5805F11D00169002901681FD0496893
:101B500001F07F03816A4A1C82620B70C18D491EAD
:101B60000904090CC18518D02BE00269816A002A9A
:101B70000268526805D0D2B20A80816A491C81622B
:101B8000ECE7C2F308020A80816A891CF7E74A6819
:101B9000816A4B1C83620A70E0E70168CA6822F020
:101BA0002002CA600168CA6822F48072CA600168B3
:101BB0004A6922F001024A61202180F83A10FFF7B9
:101BC00027FD002010BD00002DE9F041044600680B
:101BD0000169E26821F44051114301612169A06863
:101BE0000843616908432168CA6841F20C639A435B
:101BF0000243CA6020684169A26921F4407111431F
:101C000041614C4920686425322688423CD1FEF768
:101C1000C5FF00EBC00101EB001061688900B0FB5B
:101C2000F1F7FEF7BBFF00EBC00101EB00106168AC
:101C3000B0468900B0FBF1F0B0FBF5F06FF0180191
:101C4000484307EB800106EB0110B0FBF5F000F014
:101C5000F006FEF7A3FF00EBC00101EB0010616886
:101C60008900B0FBF1F0B0FBF5F006EB0016FEF7D3
:101C700095FF00EBC00101EB001061688900B0FB2B
:101C8000F1F7FEF78BFF3BE0FEF778FF00EBC001BA
:101C900001EB001061688900B0FBF1F7FEF76EFF01
:101CA00000EBC00101EB00106168B0468900B0FB99
:101CB000F1F0B0FBF5F06FF01801484307EB80013D
:101CC00006EB0110B0FBF5F000F0F006FEF756FF52
:101CD00000EBC00101EB001061688900B0FBF1F07E
:101CE000B0FBF5F006EB0016FEF748FF00EBC00175
:101CF00001EB001061688900B0FBF1F7FEF73EFFD1
:101D000000EBC00101EB001061688900B0FBF1F04D
:101D1000B0FBF5F06FF01801484307EB800108EBCA
:101D20000110B0FBF5F0216800F00F00304488602E
:101D3000BDE8F0810038014090F83910212901D028
:101D4000022070478168B1F5805F016A0BD04A1CA0
:101D50000262026809785160C18C491E0904090CAD
:101D6000C1840ED017E009880268C1F308015160F0
:101D700001690029016A02D0491C0162ECE7891C53
:101D8000FBE70168CA6822F08002CA600068C16887
:101D900041F04001C16000207047000010B50448C8
:101DA00000F00AF8BDE810400148FFF7BDBA000096
:101DB00070040020FEE7000038B500680068C043EA
:101DC000C0061BD40E4C2068016840680090204675
:101DD000FFF77DFA606B006840684FF480629042C4
:101DE00000D100200749C0F580604880012001F83B
:101DF000040BBDE838400248FFF7BEBB38BD000009
:101E0000700400206C000020FEE702E008C8121FEA
:101E100008C1002AFAD170477047002001E001C1D3
:101E2000121F002AFBD17047FEF740FDFFF723FD8C
:101E3000FFF74AFCFFF732FCFFF7DCFCFFF79EFCE4
:101E40001C221F491F48FFF7E5FB0028F8D11C2280
:101E50001B491C48FFF7DEFB0028F8D11C2218495B
:101E60001848FFF7D7FB0028F8D116480068C1686A
:101E700041F01001C160144C4FF48062211D1148E3
:101E8000FFF77AFB002525701048FFF7D5F8104FB3
:101E90004FF4FA763046FEF7EBFB20213846FEF78A
:101EA000EDFC2078C007F5D060880028F2D02570BE
:101EB0006288211D0348FFF7ADFB0028F8D1E9E750
:101EC00000000020700400206C0000202C00002086
:101ED000000C0140000000000000000001020304AB
:101EE0000607080900000000010203040C1F000897
:101EF000000000202C0000000A1E0008381F000807
:101F00002C0000200C0900001A1E0008444D41203E
:101F100053656E6420616E64205265636569766501
:101F200020546573740D0A000100000010000000C9
:081F30000000000000A24A04B9
:0400000508000131BD
:00000001FF
